:100000000C9463000C948B000C948B000C948B006C
:100010000C948B000C948B000C948B000C948B0034
:100020000C948B000C948B000C948B000C94AB0004
:100030000C948B000C948B000C948B000C948B0014
:100040000C9429030C948B000C948B000C948B0063
:100050000C948B000C948B000C948B000C948B00F4
:100060000C948B000C948B000000000024002700EF
:100070002A0000000000250028002B0000000000DE
:1000800023002600290004040404040404040202DA
:100090000202020203030303030301020408102007
:1000A0004080010204081020010204081020000012
:1000B0000007000201000003040600000000000029
:1000C00000009300200311241FBECFEFD8E0DEBF55
:1000D000CDBF11E0A0E0B1E001C01D92AB33B1078C
:1000E000E1F711E0A0E0B1E0EAE4FEE002C0059033
:1000F0000D92A030B107D9F710E0C6ECD0E004C0F3
:100100002297FE010E941F07C23CD107C9F70E9437
:100110009C000C9423070C9400000E94A3020895F5
:100120000E940B03089580E091E00E946A0183E041
:1001300091E00E946A010895CF93DF930E947103BA
:100140000E948D00C0E0D0E00E9490002097E1F373
:100150000E940000F9CF1F920F920FB60F92112448
:100160002F933F934F935F936F937F938F939F93BF
:10017000AF93BF93EF93FF9380912B0187FF05C04F
:1001800010928500109284002BC020912B01332700
:1001900027FD30958091060190E02817390704F576
:1001A00080912B01992787FD9095FC01EE0FFF1F91
:1001B000E80FF91FE95FFE4F808186FF11C0809133
:1001C0002B01992787FD9095FC01EE0FFF1FE80F8B
:1001D000F91FE95FFE4F80818F7360E00E941E046B
:1001E00080912B018F5F80932B0120912B0133276E
:1001F00027FD30958091060190E0281739070CF013
:100200004EC080912B018C300CF049C0809184004D
:100210009091850020912B01332727FD3095F9011E
:10022000EE0FFF1FE20FF31FE95FFE4F21813281C6
:10023000820F931F909389008093880080912B01F7
:10024000992787FD9095FC01EE0FFF1FE80FF91F1E
:10025000E95FFE4F808186FF2CC080912B0199279A
:1002600087FD9095FC01EE0FFF1FE80FF91FE95F76
:10027000FE4F80818F7361E00E941E041AC080E4EB
:100280009CE905C08091840090918500049690932C
:100290008900809388008FEF80932B010AC08091A2
:1002A00084009091850004962CE98034920738F3FD
:1002B000E9CFFF91EF91BF91AF919F918F917F9186
:1002C0006F915F914F913F912F910F900FBE0F90C3
:1002D0001F901895FC01809106018C3090F480836A
:1002E0008F5F80930601808190E0FC01EE0FFF1F7D
:1002F000E80FF91FE95FFE4F88EB9BE09283818353
:1003000008958FEF80830895DF92EF92FF920F930D
:100310001F93CF93DF93EC01D62E8A017901888158
:100320008C3008F065C0862F61E00E94D9034881B7
:10033000842F90E0FC01EE0FFF1FE80FF91FE95F2B
:10034000FE4F9D2D9F738081807C892B808380E26E
:1003500092E0801B910B24E030E0B9010E94B906C5
:10036000698380E699E08E199F09B9010E94B90658
:100370006A83842F6CE00E94AD06482F50E09A01FA
:10038000220F331F240F351F220F331F220F331F5D
:1003900040E050E0BA01620F731FFB01EE0FFF1F38
:1003A000E60FF71FE95FFE4F908196FD15C04F5F86
:1003B0005F4F4C30510571F724C01092800082E0ED
:1003C000809381001092850010928400B19A8091F0
:1003D0006F00826080936F00888190E0FC01EE0FD7
:1003E000FF1FE80FF91FE95FFE4F80818064808363
:1003F0008881DF91CF911F910F91FF90EF90DF9057
:1004000008958823D1F2E8CF40E252E020E639E0B7
:100410000E9484010895FC0120812C3078F54181EF
:10042000552747FD509588E890E0841B950B880F71
:10043000991F880F991F6817790784F04281552703
:1004400047FD509588E592E0841B950B880F991F16
:10045000880F991F681779070CF4CB014FB7F894F0
:1004600030E0F901EE0FFF1FE20FF31FE95FFE4FCF
:100470000297880F991F928381834FBF0895AF928F
:10048000BF92CF92DF92EF92FF920F931F93CF9381
:10049000DF93EC0182E0603278070CF046C077FD14
:1004A00004C0653B710524F405C060E070E002C043
:1004B00064EB70E000D000D0882777FD8095982FFE
:1004C0004981552747FD509528E830E0241B350B1E
:1004D000220F331F220F331F5901CC24B7FCC094C5
:1004E000DC2C4A81552747FD509528E532E0241B36
:1004F000350B220F331F220F331F442737FD409542
:10050000542FEDB7FEB7218332834383548320E019
:1005100030E0A901B4EBEB2EF12C012D112D0E943E
:1005200056040F900F900F900F90CE010E940B0277
:10053000DF91CF911F910F91FF90EF90DF90CF90BF
:10054000BF90AF9008958CE291E066E070E00E9469
:1005500004028FE291E065E070E00E9404020895D9
:10056000453608F04EC0982F9550923008F04CC098
:10057000863021F481E0611180E0682F6623E9F480
:10058000642F70E0882777FD8095982F0E949F0543
:1005900020E030E048EC52E40E94040520E030E026
:1005A00044EB52E40E942B0620E030E044EB52E49E
:1005B0000E94A0040E946C052CC0613041F5642F9C
:1005C00070E0882777FD8095982F0E949F0520E096
:1005D00030E048EC52E40E94040520E030E044EBB7
:1005E00052E40E942B0620E030E044EB52E40E94EB
:1005F0009F040E946C0577FF0CC0709561957F4F3A
:1006000008C06DEF7FEF05C06EEF7FEF02C06FEFA8
:100610007FEFCB01089586E060E044E60E94B002DF
:10062000BC018CE291E00E943F0285E060E044E67C
:100630000E94B002BC018FE291E00E943F02089547
:100640008CE291E00E946A018FE291E00E946A01CF
:1006500008951F920F920FB60F9211242F933F937C
:100660008F939F93AF93BF93809136019091370101
:10067000A0913801B091390130913A010196A11D44
:10068000B11D232F2D5F2D3720F02D570196A11D71
:10069000B11D20933A018093360190933701A093C6
:1006A0003801B09339018091320190913301A091CA
:1006B0003401B09135010196A11DB11D8093320125
:1006C00090933301A0933401B0933501BF91AF9162
:1006D0009F918F913F912F910F900FBE0F901F9080
:1006E0001895789484B5826084BD84B5816084BD9A
:1006F00085B5826085BD85B5816085BDEEE6F0E09B
:10070000808181608083E1E8F0E0108280818260F6
:100710008083808181608083E0E8F0E08081816077
:100720008083E1EBF0E0808184608083E0EBF0E0A7
:10073000808181608083EAE7F0E08081846080834B
:1007400080818260808380818160808380818068F5
:1007500080831092C1000895833071F0843028F4B2
:100760008130A1F0823021F514C08630B1F087309D
:10077000D1F08430E9F404C0809180008F7703C009
:10078000809180008F7D80938000089584B58F775D
:1007900002C084B58F7D84BD08958091B0008F77AD
:1007A0008093B00008958091B0008F7D8093B00059
:1007B0000895EF92FF92CF93DF9390E0FC01E6560D
:1007C000FF4F44918A579F4FFC018491882389F100
:1007D00090E0880F991FFC01E859FF4F2591349153
:1007E000D9018E589F4FFC0125913491E22EE701EB
:1007F0007E01F32EE701662349F49FB7F8948C91AC
:10080000409584238C93888184230BC0623059F4F3
:100810009FB7F8948C91242F209582238C93888104
:10082000842B888305C09FB7F8948C91842B8C937C
:100830009FBFDF91CF91FF90EF9008950F931F938B
:10084000DF93CF930F92CDB7DEB7282F30E0F901B9
:10085000E255FF4F8491F901E656FF4F14912A5754
:100860003F4FF90104910023D9F0882321F06983D7
:100870000E94AC036981E02FF0E0EE0FFF1FEE58FD
:10088000FF4F85919491DC019FB7F894662321F482
:100890008C911095812302C08C91812B8C939FBFEA
:1008A0000F90CF91DF911F910F9108952F923F925A
:1008B0004F925F926F927F928F929F92AF92BF9270
:1008C000CF92DF92EF92FF920F931F93DF93CF931C
:1008D000CDB7DEB73B014C0119012A016D897E8934
:1008E0008F89988D6A197B098C099D09621A730A90
:1008F000840A950AA40193010E948E06E218F30867
:1009000004091509A80197010E94CC062A0D3B1D78
:100910004C1D5D1DB901CA01CF91DF911F910F914F
:10092000FF90EF90DF90CF90BF90AF909F908F900F
:100930007F906F905F904F903F902F900895505808
:10094000BB27AA270ED04DC13ED130F043D120F0B5
:1009500031F49F3F11F41EF433C10EF4E095E7FB30
:1009600029C1E92F4FD180F3BA17620773078407B3
:10097000950718F071F49EF567C10EF4E0950B2E03
:10098000BA2FA02D0B01B90190010C01CA01A001E1
:100990001124FF27591B99F0593F50F4503E68F13C
:1009A0001A16F040A22F232F342F4427585FF3CF7D
:1009B000469537952795A795F0405395C9F77EF44E
:1009C0001F16BA0B620B730B840BBAF09150A1F097
:1009D000FF0FBB1F661F771F881FC2F70EC0BA0F1D
:1009E000621F731F841F48F4879577956795B795A5
:1009F000F7959E3F08F0B3CF9395880F08F099279D
:100A0000EE0F9795879508950CD0EBC0E3D040F09A
:100A1000DAD030F021F45F3F19F0CCC0511115C18C
:100A2000CFC0F0D098F39923C9F35523B1F3951BA8
:100A3000550BBB27AA2762177307840738F09F5FFF
:100A40005F4F220F331F441FAA1FA9F333D00E2E6E
:100A50003AF0E0E830D091505040E695001CCAF7DB
:100A600029D0FE2F27D0660F771F881FBB1F2617A0
:100A700037074807AB07B0E809F0BB0B802DBF0173
:100A8000FF2793585F4F2AF09E3F510568F092C0B0
:100A9000DCC05F3FECF3983EDCF386957795679575
:100AA000B795F7959F5FC9F7880F911D9695879524
:100AB00097F90895E1E0660F771F881FBB1F621743
:100AC00073078407BA0720F0621B730B840BBA0B01
:100AD000EE1F88F7E095089504D06894B111B5C071
:100AE000089598D088F09F5790F0B92F9927B75163
:100AF000A0F0D1F0660F771F881F991F1AF0BA95E2
:100B0000C9F712C0B13081F09FD0B1E008959CC008
:100B1000672F782F8827B85F39F0B93FCCF38695D7
:100B200077956795B395D9F73EF490958095709534
:100B300061957F4F8F4F9F4F0895E89409C097FBB1
:100B40003EF490958095709561957F4F8F4F9F4FA4
:100B50009923A9F0F92F96E9BB279395F6958795E8
:100B600077956795B795F111F8CFFAF4BB0F11F4AB
:100B700060FF1BC06F5F7F4F8F4F9F4F16C0882352
:100B800011F096E911C0772321F09EE8872F762F88
:100B900005C0662371F096E8862F70E060E02AF0C9
:100BA0009A95660F771F881FDAF7880F96958795B5
:100BB00097F9089597F99F6780E870E060E00895DD
:100BC0009FEF80EC089500240A9416161706180665
:100BD0000906089500240A94121613061406050641
:100BE0000895092E0394000C11F4882352F0BB0FD2
:100BF00040F4BF2B11F460FF04C06F5F7F4F8F4F35
:100C00009F4F089557FD9058440F551F59F05F3F6F
:100C100071F04795880F97FB991F61F09F3F79F01E
:100C200087950895121613061406551FF2CF4695A0
:100C3000F1DF08C0161617061806991FF1CF869522
:100C40007105610508940895E894BB276627772706
:100C5000CB0197F908950BD0C4CFB5DF28F0BADFE8
:100C600018F0952309F0A6CFABCF1124EECFCADF41
:100C7000A0F3959FD1F3950F50E0551F629FF001AF
:100C8000729FBB27F00DB11D639FAA27F00DB11D08
:100C9000AA1F649F6627B00DA11D661F829F222791
:100CA000B00DA11D621F739FB00DA11D621F839F18
:100CB000A00D611D221F749F3327A00D611D231FEE
:100CC000849F600D211D822F762F6A2F11249F573C
:100CD00050408AF0E1F088234AF0EE0FFF1FBB1F5F
:100CE000661F771F881F91505040A9F79E3F5105FE
:100CF00070F060CFAACF5F3FECF3983EDCF38695AF
:100D000077956795B795F795E7959F5FC1F7FE2BA8
:100D1000880F911D9695879597F90895629FD00148
:100D2000739FF001829FE00DF11D649FE00DF11DA6
:100D3000929FF00D839FF00D749FF00D659FF00D55
:100D40009927729FB00DE11DF91F639FB00DE11D42
:100D5000F91FBD01CF0111240895991B79E004C04A
:100D6000991F961708F0961B881F7A95C9F78095EA
:100D7000089597FB092E07260AD077FD04D027D0C7
:100D800006D000201AF4709561957F4F0895F6F70C
:100D9000909581959F4F089597FB092E05260ED0BB
:100DA00057FD04D028D00AD0001C38F45095409547
:100DB000309521953F4F4F4F5F4F0895F6F790952F
:100DC0008095709561957F4F8F4F9F4F0895AA1B17
:100DD000BB1B51E107C0AA1FBB1FA617B70710F026
:100DE000A61BB70B881F991F5A95A9F78095909558
:100DF000BC01CD010895A1E21A2EAA1BBB1BFD0167
:100E00000DC0AA1FBB1FEE1FFF1FA217B307E407E9
:100E1000F50720F0A21BB30BE40BF50B661F771F41
:100E2000881F991F1A9469F7609570958095909521
:100E30009B01AC01BD01CF010895EE0FFF1F05908E
:0A0E4000F491E02D0994F894FFCF1F
:00000001FF
